{
  "_format": "hh-sol-artifact-1",
  "contractName": "ContentCreatorNFT",
  "sourceName": "contracts/ContentCreatorNFT.sol",
  "abi": [
    {
      "inputs": [],
      "stateMutability": "nonpayable",
      "type": "constructor"
    },
    {
      "inputs": [],
      "name": "BasicNft__TokenUriNotFound",
      "type": "error"
    },
    {
      "anonymous": false,
      "inputs": [
        {
          "indexed": true,
          "internalType": "address",
          "name": "owner",
          "type": "address"
        },
        {
          "indexed": true,
          "internalType": "address",
          "name": "approved",
          "type": "address"
        },
        {
          "indexed": true,
          "internalType": "uint256",
          "name": "tokenId",
          "type": "uint256"
        }
      ],
      "name": "Approval",
      "type": "event"
    },
    {
      "anonymous": false,
      "inputs": [
        {
          "indexed": true,
          "internalType": "address",
          "name": "owner",
          "type": "address"
        },
        {
          "indexed": true,
          "internalType": "address",
          "name": "operator",
          "type": "address"
        },
        {
          "indexed": false,
          "internalType": "bool",
          "name": "approved",
          "type": "bool"
        }
      ],
      "name": "ApprovalForAll",
      "type": "event"
    },
    {
      "anonymous": false,
      "inputs": [
        {
          "indexed": true,
          "internalType": "address",
          "name": "from",
          "type": "address"
        },
        {
          "indexed": true,
          "internalType": "address",
          "name": "to",
          "type": "address"
        },
        {
          "indexed": true,
          "internalType": "uint256",
          "name": "tokenId",
          "type": "uint256"
        }
      ],
      "name": "Transfer",
      "type": "event"
    },
    {
      "inputs": [
        {
          "internalType": "address",
          "name": "to",
          "type": "address"
        },
        {
          "internalType": "uint256",
          "name": "tokenId",
          "type": "uint256"
        }
      ],
      "name": "approve",
      "outputs": [],
      "stateMutability": "nonpayable",
      "type": "function"
    },
    {
      "inputs": [
        {
          "internalType": "address",
          "name": "owner",
          "type": "address"
        }
      ],
      "name": "balanceOf",
      "outputs": [
        {
          "internalType": "uint256",
          "name": "",
          "type": "uint256"
        }
      ],
      "stateMutability": "view",
      "type": "function"
    },
    {
      "inputs": [
        {
          "internalType": "uint256",
          "name": "_id",
          "type": "uint256"
        }
      ],
      "name": "getAddressFromId",
      "outputs": [
        {
          "internalType": "address",
          "name": "",
          "type": "address"
        }
      ],
      "stateMutability": "view",
      "type": "function"
    },
    {
      "inputs": [
        {
          "internalType": "uint256",
          "name": "tokenId",
          "type": "uint256"
        }
      ],
      "name": "getApproved",
      "outputs": [
        {
          "internalType": "address",
          "name": "",
          "type": "address"
        }
      ],
      "stateMutability": "view",
      "type": "function"
    },
    {
      "inputs": [
        {
          "internalType": "address",
          "name": "owner",
          "type": "address"
        },
        {
          "internalType": "address",
          "name": "operator",
          "type": "address"
        }
      ],
      "name": "isApprovedForAll",
      "outputs": [
        {
          "internalType": "bool",
          "name": "",
          "type": "bool"
        }
      ],
      "stateMutability": "view",
      "type": "function"
    },
    {
      "inputs": [
        {
          "internalType": "address",
          "name": "_to",
          "type": "address"
        },
        {
          "internalType": "uint256",
          "name": "_tokenCounter",
          "type": "uint256"
        },
        {
          "internalType": "string",
          "name": "_uri",
          "type": "string"
        }
      ],
      "name": "mint",
      "outputs": [],
      "stateMutability": "nonpayable",
      "type": "function"
    },
    {
      "inputs": [],
      "name": "name",
      "outputs": [
        {
          "internalType": "string",
          "name": "",
          "type": "string"
        }
      ],
      "stateMutability": "view",
      "type": "function"
    },
    {
      "inputs": [
        {
          "internalType": "uint256",
          "name": "tokenId",
          "type": "uint256"
        }
      ],
      "name": "ownerOf",
      "outputs": [
        {
          "internalType": "address",
          "name": "",
          "type": "address"
        }
      ],
      "stateMutability": "view",
      "type": "function"
    },
    {
      "inputs": [
        {
          "internalType": "address",
          "name": "from",
          "type": "address"
        },
        {
          "internalType": "address",
          "name": "to",
          "type": "address"
        },
        {
          "internalType": "uint256",
          "name": "tokenId",
          "type": "uint256"
        }
      ],
      "name": "safeTransferFrom",
      "outputs": [],
      "stateMutability": "nonpayable",
      "type": "function"
    },
    {
      "inputs": [
        {
          "internalType": "address",
          "name": "from",
          "type": "address"
        },
        {
          "internalType": "address",
          "name": "to",
          "type": "address"
        },
        {
          "internalType": "uint256",
          "name": "tokenId",
          "type": "uint256"
        },
        {
          "internalType": "bytes",
          "name": "data",
          "type": "bytes"
        }
      ],
      "name": "safeTransferFrom",
      "outputs": [],
      "stateMutability": "nonpayable",
      "type": "function"
    },
    {
      "inputs": [
        {
          "internalType": "address",
          "name": "operator",
          "type": "address"
        },
        {
          "internalType": "bool",
          "name": "approved",
          "type": "bool"
        }
      ],
      "name": "setApprovalForAll",
      "outputs": [],
      "stateMutability": "nonpayable",
      "type": "function"
    },
    {
      "inputs": [
        {
          "internalType": "bytes4",
          "name": "interfaceId",
          "type": "bytes4"
        }
      ],
      "name": "supportsInterface",
      "outputs": [
        {
          "internalType": "bool",
          "name": "",
          "type": "bool"
        }
      ],
      "stateMutability": "view",
      "type": "function"
    },
    {
      "inputs": [],
      "name": "symbol",
      "outputs": [
        {
          "internalType": "string",
          "name": "",
          "type": "string"
        }
      ],
      "stateMutability": "view",
      "type": "function"
    },
    {
      "inputs": [
        {
          "internalType": "uint256",
          "name": "_tokenId",
          "type": "uint256"
        }
      ],
      "name": "tokenURI",
      "outputs": [
        {
          "internalType": "string",
          "name": "",
          "type": "string"
        }
      ],
      "stateMutability": "view",
      "type": "function"
    },
    {
      "inputs": [
        {
          "internalType": "address",
          "name": "from",
          "type": "address"
        },
        {
          "internalType": "address",
          "name": "to",
          "type": "address"
        },
        {
          "internalType": "uint256",
          "name": "tokenId",
          "type": "uint256"
        }
      ],
      "name": "transferFrom",
      "outputs": [],
      "stateMutability": "nonpayable",
      "type": "function"
    }
  ],
  "bytecode": "0x60806040523480156200001157600080fd5b506040518060400160405280600b81526020017f53746172636f6e6e6563740000000000000000000000000000000000000000008152506040518060400160405280600381526020017f535443000000000000000000000000000000000000000000000000000000000081525081600090816200008f919062000324565b508060019081620000a1919062000324565b5050506200040b565b600081519050919050565b7f4e487b7100000000000000000000000000000000000000000000000000000000600052604160045260246000fd5b7f4e487b7100000000000000000000000000000000000000000000000000000000600052602260045260246000fd5b600060028204905060018216806200012c57607f821691505b602082108103620001425762000141620000e4565b5b50919050565b60008190508160005260206000209050919050565b60006020601f8301049050919050565b600082821b905092915050565b600060088302620001ac7fffffffffffffffffffffffffffffffffffffffffffffffffffffffffffffffff826200016d565b620001b886836200016d565b95508019841693508086168417925050509392505050565b6000819050919050565b6000819050919050565b600062000205620001ff620001f984620001d0565b620001da565b620001d0565b9050919050565b6000819050919050565b6200022183620001e4565b6200023962000230826200020c565b8484546200017a565b825550505050565b600090565b6200025062000241565b6200025d81848462000216565b505050565b5b8181101562000285576200027960008262000246565b60018101905062000263565b5050565b601f821115620002d4576200029e8162000148565b620002a9846200015d565b81016020851015620002b9578190505b620002d1620002c8856200015d565b83018262000262565b50505b505050565b600082821c905092915050565b6000620002f960001984600802620002d9565b1980831691505092915050565b6000620003148383620002e6565b9150826002028217905092915050565b6200032f82620000aa565b67ffffffffffffffff8111156200034b576200034a620000b5565b5b62000357825462000113565b6200036482828562000289565b600060209050601f8311600181146200039c576000841562000387578287015190505b62000393858262000306565b86555062000403565b601f198416620003ac8662000148565b60005b82811015620003d657848901518255600182019150602085019450602081019050620003af565b86831015620003f65784890151620003f2601f891682620002e6565b8355505b6001600288020188555050505b505050505050565b6126b0806200041b6000396000f3fe608060405234801561001057600080fd5b50600436106100f55760003560e01c806370a0823111610097578063b88d4fde11610066578063b88d4fde14610296578063c87b56dd146102b2578063d3fc9864146102e2578063e985e9c5146102fe576100f5565b806370a08231146101fc57806372166b6b1461022c57806395d89b411461025c578063a22cb4651461027a576100f5565b8063095ea7b3116100d3578063095ea7b31461017857806323b872dd1461019457806342842e0e146101b05780636352211e146101cc576100f5565b806301ffc9a7146100fa57806306fdde031461012a578063081812fc14610148575b600080fd5b610114600480360381019061010f91906116ad565b61032e565b60405161012191906116f5565b60405180910390f35b610132610410565b60405161013f91906117a0565b60405180910390f35b610162600480360381019061015d91906117f8565b6104a2565b60405161016f9190611866565b60405180910390f35b610192600480360381019061018d91906118ad565b6104e8565b005b6101ae60048036038101906101a991906118ed565b6105ff565b005b6101ca60048036038101906101c591906118ed565b61065f565b005b6101e660048036038101906101e191906117f8565b61067f565b6040516101f39190611866565b60405180910390f35b61021660048036038101906102119190611940565b610705565b604051610223919061197c565b60405180910390f35b610246600480360381019061024191906117f8565b6107bc565b6040516102539190611866565b60405180910390f35b6102646107f9565b60405161027191906117a0565b60405180910390f35b610294600480360381019061028f91906119c3565b61088b565b005b6102b060048036038101906102ab9190611b38565b6108a1565b005b6102cc60048036038101906102c791906117f8565b610903565b6040516102d991906117a0565b60405180910390f35b6102fc60048036038101906102f79190611c5c565b6109e7565b005b61031860048036038101906103139190611ccb565b610a17565b60405161032591906116f5565b60405180910390f35b60007f80ac58cd000000000000000000000000000000000000000000000000000000007bffffffffffffffffffffffffffffffffffffffffffffffffffffffff1916827bffffffffffffffffffffffffffffffffffffffffffffffffffffffff191614806103f957507f5b5e139f000000000000000000000000000000000000000000000000000000007bffffffffffffffffffffffffffffffffffffffffffffffffffffffff1916827bffffffffffffffffffffffffffffffffffffffffffffffffffffffff1916145b80610409575061040882610aab565b5b9050919050565b60606000805461041f90611d3a565b80601f016020809104026020016040519081016040528092919081815260200182805461044b90611d3a565b80156104985780601f1061046d57610100808354040283529160200191610498565b820191906000526020600020905b81548152906001019060200180831161047b57829003601f168201915b5050505050905090565b60006104ad82610b15565b6004600083815260200190815260200160002060009054906101000a900473ffffffffffffffffffffffffffffffffffffffff169050919050565b60006104f38261067f565b90508073ffffffffffffffffffffffffffffffffffffffff168373ffffffffffffffffffffffffffffffffffffffff1603610563576040517f08c379a000000000000000000000000000000000000000000000000000000000815260040161055a90611ddd565b60405180910390fd5b8073ffffffffffffffffffffffffffffffffffffffff16610582610b60565b73ffffffffffffffffffffffffffffffffffffffff1614806105b157506105b0816105ab610b60565b610a17565b5b6105f0576040517f08c379a00000000000000000000000000000000000000000000000000000000081526004016105e790611e6f565b60405180910390fd5b6105fa8383610b68565b505050565b61061061060a610b60565b82610c21565b61064f576040517f08c379a000000000000000000000000000000000000000000000000000000000815260040161064690611f01565b60405180910390fd5b61065a838383610cb6565b505050565b61067a838383604051806020016040528060008152506108a1565b505050565b60008061068b83610faf565b9050600073ffffffffffffffffffffffffffffffffffffffff168173ffffffffffffffffffffffffffffffffffffffff16036106fc576040517f08c379a00000000000000000000000000000000000000000000000000000000081526004016106f390611f6d565b60405180910390fd5b80915050919050565b60008073ffffffffffffffffffffffffffffffffffffffff168273ffffffffffffffffffffffffffffffffffffffff1603610775576040517f08c379a000000000000000000000000000000000000000000000000000000000815260040161076c90611fff565b60405180910390fd5b600360008373ffffffffffffffffffffffffffffffffffffffff1673ffffffffffffffffffffffffffffffffffffffff168152602001908152602001600020549050919050565b60006006600083815260200190815260200160002060009054906101000a900473ffffffffffffffffffffffffffffffffffffffff169050919050565b60606001805461080890611d3a565b80601f016020809104026020016040519081016040528092919081815260200182805461083490611d3a565b80156108815780601f1061085657610100808354040283529160200191610881565b820191906000526020600020905b81548152906001019060200180831161086457829003601f168201915b5050505050905090565b61089d610896610b60565b8383610fec565b5050565b6108b26108ac610b60565b83610c21565b6108f1576040517f08c379a00000000000000000000000000000000000000000000000000000000081526004016108e890611f01565b60405180910390fd5b6108fd84848484611158565b50505050565b606061090e826111b4565b610944576040517f7598996f00000000000000000000000000000000000000000000000000000000815260040160405180910390fd5b60076000838152602001908152602001600020805461096290611d3a565b80601f016020809104026020016040519081016040528092919081815260200182805461098e90611d3a565b80156109db5780601f106109b0576101008083540402835291602001916109db565b820191906000526020600020905b8154815290600101906020018083116109be57829003601f168201915b50505050509050919050565b80600760008481526020019081526020016000209081610a0791906121cb565b50610a1283836111f5565b505050565b6000600560008473ffffffffffffffffffffffffffffffffffffffff1673ffffffffffffffffffffffffffffffffffffffff16815260200190815260200160002060008373ffffffffffffffffffffffffffffffffffffffff1673ffffffffffffffffffffffffffffffffffffffff16815260200190815260200160002060009054906101000a900460ff16905092915050565b60007f01ffc9a7000000000000000000000000000000000000000000000000000000007bffffffffffffffffffffffffffffffffffffffffffffffffffffffff1916827bffffffffffffffffffffffffffffffffffffffffffffffffffffffff1916149050919050565b610b1e816111b4565b610b5d576040517f08c379a0000000000000000000000000000000000000000000000000000000008152600401610b5490611f6d565b60405180910390fd5b50565b600033905090565b816004600083815260200190815260200160002060006101000a81548173ffffffffffffffffffffffffffffffffffffffff021916908373ffffffffffffffffffffffffffffffffffffffff160217905550808273ffffffffffffffffffffffffffffffffffffffff16610bdb8361067f565b73ffffffffffffffffffffffffffffffffffffffff167f8c5be1e5ebec7d5bd14f71427d1e84f3dd0314c0f7b2291e5b200ac8c7c3b92560405160405180910390a45050565b600080610c2d8361067f565b90508073ffffffffffffffffffffffffffffffffffffffff168473ffffffffffffffffffffffffffffffffffffffff161480610c6f5750610c6e8185610a17565b5b80610cad57508373ffffffffffffffffffffffffffffffffffffffff16610c95846104a2565b73ffffffffffffffffffffffffffffffffffffffff16145b91505092915050565b8273ffffffffffffffffffffffffffffffffffffffff16610cd68261067f565b73ffffffffffffffffffffffffffffffffffffffff1614610d2c576040517f08c379a0000000000000000000000000000000000000000000000000000000008152600401610d239061230f565b60405180910390fd5b600073ffffffffffffffffffffffffffffffffffffffff168273ffffffffffffffffffffffffffffffffffffffff1603610d9b576040517f08c379a0000000000000000000000000000000000000000000000000000000008152600401610d92906123a1565b60405180910390fd5b610da88383836001611213565b8273ffffffffffffffffffffffffffffffffffffffff16610dc88261067f565b73ffffffffffffffffffffffffffffffffffffffff1614610e1e576040517f08c379a0000000000000000000000000000000000000000000000000000000008152600401610e159061230f565b60405180910390fd5b6004600082815260200190815260200160002060006101000a81549073ffffffffffffffffffffffffffffffffffffffff02191690556001600360008573ffffffffffffffffffffffffffffffffffffffff1673ffffffffffffffffffffffffffffffffffffffff168152602001908152602001600020600082825403925050819055506001600360008473ffffffffffffffffffffffffffffffffffffffff1673ffffffffffffffffffffffffffffffffffffffff16815260200190815260200160002060008282540192505081905550816002600083815260200190815260200160002060006101000a81548173ffffffffffffffffffffffffffffffffffffffff021916908373ffffffffffffffffffffffffffffffffffffffff160217905550808273ffffffffffffffffffffffffffffffffffffffff168473ffffffffffffffffffffffffffffffffffffffff167fddf252ad1be2c89b69c2b068fc378daa952ba7f163c4a11628f55a4df523b3ef60405160405180910390a4610faa8383836001611219565b505050565b60006002600083815260200190815260200160002060009054906101000a900473ffffffffffffffffffffffffffffffffffffffff169050919050565b8173ffffffffffffffffffffffffffffffffffffffff168373ffffffffffffffffffffffffffffffffffffffff160361105a576040517f08c379a00000000000000000000000000000000000000000000000000000000081526004016110519061240d565b60405180910390fd5b80600560008573ffffffffffffffffffffffffffffffffffffffff1673ffffffffffffffffffffffffffffffffffffffff16815260200190815260200160002060008473ffffffffffffffffffffffffffffffffffffffff1673ffffffffffffffffffffffffffffffffffffffff16815260200190815260200160002060006101000a81548160ff0219169083151502179055508173ffffffffffffffffffffffffffffffffffffffff168373ffffffffffffffffffffffffffffffffffffffff167f17307eab39ab6107e8899845ad3d59bd9653f200f220920489ca2b5937696c318360405161114b91906116f5565b60405180910390a3505050565b611163848484610cb6565b61116f8484848461121f565b6111ae576040517f08c379a00000000000000000000000000000000000000000000000000000000081526004016111a59061249f565b60405180910390fd5b50505050565b60008073ffffffffffffffffffffffffffffffffffffffff166111d683610faf565b73ffffffffffffffffffffffffffffffffffffffff1614159050919050565b61120f8282604051806020016040528060008152506113a6565b5050565b50505050565b50505050565b60006112408473ffffffffffffffffffffffffffffffffffffffff16611401565b15611399578373ffffffffffffffffffffffffffffffffffffffff1663150b7a02611269610b60565b8786866040518563ffffffff1660e01b815260040161128b9493929190612514565b6020604051808303816000875af19250505080156112c757506040513d601f19601f820116820180604052508101906112c49190612575565b60015b611349573d80600081146112f7576040519150601f19603f3d011682016040523d82523d6000602084013e6112fc565b606091505b506000815103611341576040517f08c379a00000000000000000000000000000000000000000000000000000000081526004016113389061249f565b60405180910390fd5b805181602001fd5b63150b7a0260e01b7bffffffffffffffffffffffffffffffffffffffffffffffffffffffff1916817bffffffffffffffffffffffffffffffffffffffffffffffffffffffff19161491505061139e565b600190505b949350505050565b6113b08383611424565b6113bd600084848461121f565b6113fc576040517f08c379a00000000000000000000000000000000000000000000000000000000081526004016113f39061249f565b60405180910390fd5b505050565b6000808273ffffffffffffffffffffffffffffffffffffffff163b119050919050565b600073ffffffffffffffffffffffffffffffffffffffff168273ffffffffffffffffffffffffffffffffffffffff1603611493576040517f08c379a000000000000000000000000000000000000000000000000000000000815260040161148a906125ee565b60405180910390fd5b61149c816111b4565b156114dc576040517f08c379a00000000000000000000000000000000000000000000000000000000081526004016114d39061265a565b60405180910390fd5b6114ea600083836001611213565b6114f3816111b4565b15611533576040517f08c379a000000000000000000000000000000000000000000000000000000000815260040161152a9061265a565b60405180910390fd5b6001600360008473ffffffffffffffffffffffffffffffffffffffff1673ffffffffffffffffffffffffffffffffffffffff16815260200190815260200160002060008282540192505081905550816002600083815260200190815260200160002060006101000a81548173ffffffffffffffffffffffffffffffffffffffff021916908373ffffffffffffffffffffffffffffffffffffffff160217905550808273ffffffffffffffffffffffffffffffffffffffff16600073ffffffffffffffffffffffffffffffffffffffff167fddf252ad1be2c89b69c2b068fc378daa952ba7f163c4a11628f55a4df523b3ef60405160405180910390a461163d600083836001611219565b5050565b6000604051905090565b600080fd5b600080fd5b60007fffffffff0000000000000000000000000000000000000000000000000000000082169050919050565b61168a81611655565b811461169557600080fd5b50565b6000813590506116a781611681565b92915050565b6000602082840312156116c3576116c261164b565b5b60006116d184828501611698565b91505092915050565b60008115159050919050565b6116ef816116da565b82525050565b600060208201905061170a60008301846116e6565b92915050565b600081519050919050565b600082825260208201905092915050565b60005b8381101561174a57808201518184015260208101905061172f565b60008484015250505050565b6000601f19601f8301169050919050565b600061177282611710565b61177c818561171b565b935061178c81856020860161172c565b61179581611756565b840191505092915050565b600060208201905081810360008301526117ba8184611767565b905092915050565b6000819050919050565b6117d5816117c2565b81146117e057600080fd5b50565b6000813590506117f2816117cc565b92915050565b60006020828403121561180e5761180d61164b565b5b600061181c848285016117e3565b91505092915050565b600073ffffffffffffffffffffffffffffffffffffffff82169050919050565b600061185082611825565b9050919050565b61186081611845565b82525050565b600060208201905061187b6000830184611857565b92915050565b61188a81611845565b811461189557600080fd5b50565b6000813590506118a781611881565b92915050565b600080604083850312156118c4576118c361164b565b5b60006118d285828601611898565b92505060206118e3858286016117e3565b9150509250929050565b6000806000606084860312156119065761190561164b565b5b600061191486828701611898565b935050602061192586828701611898565b9250506040611936868287016117e3565b9150509250925092565b6000602082840312156119565761195561164b565b5b600061196484828501611898565b91505092915050565b611976816117c2565b82525050565b6000602082019050611991600083018461196d565b92915050565b6119a0816116da565b81146119ab57600080fd5b50565b6000813590506119bd81611997565b92915050565b600080604083850312156119da576119d961164b565b5b60006119e885828601611898565b92505060206119f9858286016119ae565b9150509250929050565b600080fd5b600080fd5b7f4e487b7100000000000000000000000000000000000000000000000000000000600052604160045260246000fd5b611a4582611756565b810181811067ffffffffffffffff82111715611a6457611a63611a0d565b5b80604052505050565b6000611a77611641565b9050611a838282611a3c565b919050565b600067ffffffffffffffff821115611aa357611aa2611a0d565b5b611aac82611756565b9050602081019050919050565b82818337600083830152505050565b6000611adb611ad684611a88565b611a6d565b905082815260208101848484011115611af757611af6611a08565b5b611b02848285611ab9565b509392505050565b600082601f830112611b1f57611b1e611a03565b5b8135611b2f848260208601611ac8565b91505092915050565b60008060008060808587031215611b5257611b5161164b565b5b6000611b6087828801611898565b9450506020611b7187828801611898565b9350506040611b82878288016117e3565b925050606085013567ffffffffffffffff811115611ba357611ba2611650565b5b611baf87828801611b0a565b91505092959194509250565b600067ffffffffffffffff821115611bd657611bd5611a0d565b5b611bdf82611756565b9050602081019050919050565b6000611bff611bfa84611bbb565b611a6d565b905082815260208101848484011115611c1b57611c1a611a08565b5b611c26848285611ab9565b509392505050565b600082601f830112611c4357611c42611a03565b5b8135611c53848260208601611bec565b91505092915050565b600080600060608486031215611c7557611c7461164b565b5b6000611c8386828701611898565b9350506020611c94868287016117e3565b925050604084013567ffffffffffffffff811115611cb557611cb4611650565b5b611cc186828701611c2e565b9150509250925092565b60008060408385031215611ce257611ce161164b565b5b6000611cf085828601611898565b9250506020611d0185828601611898565b9150509250929050565b7f4e487b7100000000000000000000000000000000000000000000000000000000600052602260045260246000fd5b60006002820490506001821680611d5257607f821691505b602082108103611d6557611d64611d0b565b5b50919050565b7f4552433732313a20617070726f76616c20746f2063757272656e74206f776e6560008201527f7200000000000000000000000000000000000000000000000000000000000000602082015250565b6000611dc760218361171b565b9150611dd282611d6b565b604082019050919050565b60006020820190508181036000830152611df681611dba565b9050919050565b7f4552433732313a20617070726f76652063616c6c6572206973206e6f7420746f60008201527f6b656e206f776e6572206f7220617070726f76656420666f7220616c6c000000602082015250565b6000611e59603d8361171b565b9150611e6482611dfd565b604082019050919050565b60006020820190508181036000830152611e8881611e4c565b9050919050565b7f4552433732313a2063616c6c6572206973206e6f7420746f6b656e206f776e6560008201527f72206f7220617070726f76656400000000000000000000000000000000000000602082015250565b6000611eeb602d8361171b565b9150611ef682611e8f565b604082019050919050565b60006020820190508181036000830152611f1a81611ede565b9050919050565b7f4552433732313a20696e76616c696420746f6b656e2049440000000000000000600082015250565b6000611f5760188361171b565b9150611f6282611f21565b602082019050919050565b60006020820190508181036000830152611f8681611f4a565b9050919050565b7f4552433732313a2061646472657373207a65726f206973206e6f74206120766160008201527f6c6964206f776e65720000000000000000000000000000000000000000000000602082015250565b6000611fe960298361171b565b9150611ff482611f8d565b604082019050919050565b6000602082019050818103600083015261201881611fdc565b9050919050565b60008190508160005260206000209050919050565b60006020601f8301049050919050565b600082821b905092915050565b6000600883026120817fffffffffffffffffffffffffffffffffffffffffffffffffffffffffffffffff82612044565b61208b8683612044565b95508019841693508086168417925050509392505050565b6000819050919050565b60006120c86120c36120be846117c2565b6120a3565b6117c2565b9050919050565b6000819050919050565b6120e2836120ad565b6120f66120ee826120cf565b848454612051565b825550505050565b600090565b61210b6120fe565b6121168184846120d9565b505050565b5b8181101561213a5761212f600082612103565b60018101905061211c565b5050565b601f82111561217f576121508161201f565b61215984612034565b81016020851015612168578190505b61217c61217485612034565b83018261211b565b50505b505050565b600082821c905092915050565b60006121a260001984600802612184565b1980831691505092915050565b60006121bb8383612191565b9150826002028217905092915050565b6121d482611710565b67ffffffffffffffff8111156121ed576121ec611a0d565b5b6121f78254611d3a565b61220282828561213e565b600060209050601f8311600181146122355760008415612223578287015190505b61222d85826121af565b865550612295565b601f1984166122438661201f565b60005b8281101561226b57848901518255600182019150602085019450602081019050612246565b868310156122885784890151612284601f891682612191565b8355505b6001600288020188555050505b505050505050565b7f4552433732313a207472616e736665722066726f6d20696e636f72726563742060008201527f6f776e6572000000000000000000000000000000000000000000000000000000602082015250565b60006122f960258361171b565b91506123048261229d565b604082019050919050565b60006020820190508181036000830152612328816122ec565b9050919050565b7f4552433732313a207472616e7366657220746f20746865207a65726f2061646460008201527f7265737300000000000000000000000000000000000000000000000000000000602082015250565b600061238b60248361171b565b91506123968261232f565b604082019050919050565b600060208201905081810360008301526123ba8161237e565b9050919050565b7f4552433732313a20617070726f766520746f2063616c6c657200000000000000600082015250565b60006123f760198361171b565b9150612402826123c1565b602082019050919050565b60006020820190508181036000830152612426816123ea565b9050919050565b7f4552433732313a207472616e7366657220746f206e6f6e20455243373231526560008201527f63656976657220696d706c656d656e7465720000000000000000000000000000602082015250565b600061248960328361171b565b91506124948261242d565b604082019050919050565b600060208201905081810360008301526124b88161247c565b9050919050565b600081519050919050565b600082825260208201905092915050565b60006124e6826124bf565b6124f081856124ca565b935061250081856020860161172c565b61250981611756565b840191505092915050565b60006080820190506125296000830187611857565b6125366020830186611857565b612543604083018561196d565b818103606083015261255581846124db565b905095945050505050565b60008151905061256f81611681565b92915050565b60006020828403121561258b5761258a61164b565b5b600061259984828501612560565b91505092915050565b7f4552433732313a206d696e7420746f20746865207a65726f2061646472657373600082015250565b60006125d860208361171b565b91506125e3826125a2565b602082019050919050565b60006020820190508181036000830152612607816125cb565b9050919050565b7f4552433732313a20746f6b656e20616c7265616479206d696e74656400000000600082015250565b6000612644601c8361171b565b915061264f8261260e565b602082019050919050565b6000602082019050818103600083015261267381612637565b905091905056fea26469706673582212207fe3f4867c67841be80ff23f10f183a6a887539fd5a24188fb898583fd6d651f64736f6c63430008130033",
  "linkReferences": {},
  "deployedLinkReferences": {}
}